{
  "_format": "hh-sol-artifact-1",
  "contractName": "NFTMarket",
  "sourceName": "contracts/NFTMarket.sol",
  "abi": [
    {
      "inputs": [],
      "stateMutability": "nonpayable",
      "type": "constructor"
    },
    {
      "anonymous": false,
      "inputs": [
        {
          "indexed": true,
          "internalType": "uint256",
          "name": "itemId",
          "type": "uint256"
        },
        {
          "indexed": true,
          "internalType": "address",
          "name": "nftContract",
          "type": "address"
        },
        {
          "indexed": true,
          "internalType": "uint256",
          "name": "tokenId",
          "type": "uint256"
        },
        {
          "indexed": false,
          "internalType": "address",
          "name": "seller",
          "type": "address"
        },
        {
          "indexed": false,
          "internalType": "address",
          "name": "owner",
          "type": "address"
        },
        {
          "indexed": false,
          "internalType": "uint256",
          "name": "price",
          "type": "uint256"
        },
        {
          "indexed": false,
          "internalType": "bool",
          "name": "sold",
          "type": "bool"
        },
        {
          "indexed": false,
          "internalType": "bool",
          "name": "attribute1",
          "type": "bool"
        }
      ],
      "name": "MarketItemCreated",
      "type": "event"
    },
    {
      "inputs": [
        {
          "internalType": "address",
          "name": "nftContract",
          "type": "address"
        },
        {
          "internalType": "uint256",
          "name": "tokenId",
          "type": "uint256"
        },
        {
          "internalType": "uint256",
          "name": "price",
          "type": "uint256"
        }
      ],
      "name": "createMarketItem",
      "outputs": [],
      "stateMutability": "payable",
      "type": "function"
    },
    {
      "inputs": [],
      "name": "fetchItemsCreated",
      "outputs": [
        {
          "components": [
            {
              "internalType": "uint256",
              "name": "itemId",
              "type": "uint256"
            },
            {
              "internalType": "address",
              "name": "nftContract",
              "type": "address"
            },
            {
              "internalType": "uint256",
              "name": "tokenId",
              "type": "uint256"
            },
            {
              "internalType": "address payable",
              "name": "seller",
              "type": "address"
            },
            {
              "internalType": "address payable",
              "name": "owner",
              "type": "address"
            },
            {
              "internalType": "uint256",
              "name": "price",
              "type": "uint256"
            },
            {
              "internalType": "bool",
              "name": "sold",
              "type": "bool"
            },
            {
              "internalType": "bool",
              "name": "attribute1",
              "type": "bool"
            }
          ],
          "internalType": "struct NFTMarket.MarketItem[]",
          "name": "",
          "type": "tuple[]"
        }
      ],
      "stateMutability": "view",
      "type": "function"
    },
    {
      "inputs": [],
      "name": "fetchMarketItems",
      "outputs": [
        {
          "components": [
            {
              "internalType": "uint256",
              "name": "itemId",
              "type": "uint256"
            },
            {
              "internalType": "address",
              "name": "nftContract",
              "type": "address"
            },
            {
              "internalType": "uint256",
              "name": "tokenId",
              "type": "uint256"
            },
            {
              "internalType": "address payable",
              "name": "seller",
              "type": "address"
            },
            {
              "internalType": "address payable",
              "name": "owner",
              "type": "address"
            },
            {
              "internalType": "uint256",
              "name": "price",
              "type": "uint256"
            },
            {
              "internalType": "bool",
              "name": "sold",
              "type": "bool"
            },
            {
              "internalType": "bool",
              "name": "attribute1",
              "type": "bool"
            }
          ],
          "internalType": "struct NFTMarket.MarketItem[]",
          "name": "",
          "type": "tuple[]"
        }
      ],
      "stateMutability": "view",
      "type": "function"
    },
    {
      "inputs": [],
      "name": "fetchMyNFTs",
      "outputs": [
        {
          "components": [
            {
              "internalType": "uint256",
              "name": "itemId",
              "type": "uint256"
            },
            {
              "internalType": "address",
              "name": "nftContract",
              "type": "address"
            },
            {
              "internalType": "uint256",
              "name": "tokenId",
              "type": "uint256"
            },
            {
              "internalType": "address payable",
              "name": "seller",
              "type": "address"
            },
            {
              "internalType": "address payable",
              "name": "owner",
              "type": "address"
            },
            {
              "internalType": "uint256",
              "name": "price",
              "type": "uint256"
            },
            {
              "internalType": "bool",
              "name": "sold",
              "type": "bool"
            },
            {
              "internalType": "bool",
              "name": "attribute1",
              "type": "bool"
            }
          ],
          "internalType": "struct NFTMarket.MarketItem[]",
          "name": "",
          "type": "tuple[]"
        }
      ],
      "stateMutability": "view",
      "type": "function"
    },
    {
      "inputs": [],
      "name": "getListingPrice",
      "outputs": [
        {
          "internalType": "uint256",
          "name": "",
          "type": "uint256"
        }
      ],
      "stateMutability": "view",
      "type": "function"
    },
    {
      "inputs": [
        {
          "internalType": "address",
          "name": "nftContract",
          "type": "address"
        },
        {
          "internalType": "uint256",
          "name": "itemId",
          "type": "uint256"
        }
      ],
      "name": "sellMarketItem",
      "outputs": [],
      "stateMutability": "payable",
      "type": "function"
    }
  ],
  "bytecode": "0x60806040526658d15e1762800060045534801561001b57600080fd5b506001600055600380546001600160a01b03191633179055610da6806100426000396000f3fe6080604052600436106100555760003560e01c80630f08efe01461005a57806312e8558514610085578063202e3740146100a357806358eb2df5146100b8578063b0916feb146100cd578063f064c32e146100e0575b600080fd5b34801561006657600080fd5b5061006f6100f5565b60405161007c9190610c6f565b60405180910390f35b34801561009157600080fd5b5060045460405190815260200161007c565b3480156100af57600080fd5b5061006f6102c2565b6100cb6100c6366004610c3d565b6104cd565b005b6100cb6100db366004610c14565b61078d565b3480156100ec57600080fd5b5061006f6109a9565b6060600061010260015490565b9050600061010f60025490565b60015461011c9190610d28565b90506000808267ffffffffffffffff81111561014857634e487b7160e01b600052604160045260246000fd5b60405190808252806020026020018201604052801561018157816020015b61016e610bb4565b8152602001906001900390816101665790505b50905060005b848110156102b957600060058161019f846001610d10565b81526020810191909152604001600020600401546001600160a01b031614156102a75760006005816101d2846001610d10565b81526020808201929092526040908101600090812054808252600580855291839020835161010080820186528254825260018301546001600160a01b0390811697830197909752600283015495820195909552600382015486166060820152600482015490951660808601529182015460a0850152600682015460ff808216151560c0870152939004909216151560e08401528551919350919085908790811061028c57634e487b7160e01b600052603260045260246000fd5b60209081029190910101526102a2600186610d10565b945050505b806102b181610d3f565b915050610187565b50949350505050565b606060006102cf60015490565b905060008060005b838110156103325733600560006102ef846001610d10565b81526020810191909152604001600020600401546001600160a01b031614156103205761031d600184610d10565b92505b8061032a81610d3f565b9150506102d7565b5060008267ffffffffffffffff81111561035c57634e487b7160e01b600052604160045260246000fd5b60405190808252806020026020018201604052801561039557816020015b610382610bb4565b81526020019060019003908161037a5790505b50905060005b848110156102b95733600560006103b3846001610d10565b81526020810191909152604001600020600401546001600160a01b031614156104bb5760006005816103e6846001610d10565b81526020808201929092526040908101600090812054808252600580855291839020835161010080820186528254825260018301546001600160a01b0390811697830197909752600283015495820195909552600382015486166060820152600482015490951660808601529182015460a0850152600682015460ff808216151560c0870152939004909216151560e0840152855191935091908590879081106104a057634e487b7160e01b600052603260045260246000fd5b60209081029190910101526104b6600186610d10565b945050505b806104c581610d3f565b91505061039b565b600260005414156105255760405162461bcd60e51b815260206004820152601f60248201527f5265656e7472616e637947756172643a207265656e7472616e742063616c6c0060448201526064015b60405180910390fd5b6002600055806105775760405162461bcd60e51b815260206004820152601c60248201527f5072696365206d757374206265206174206c6561737420312077656900000000604482015260640161051c565b60045434146105d45760405162461bcd60e51b8152602060048201526024808201527f5072696365206d75737420626520657571616c20746f206c697374696e6720706044820152637269636560e01b606482015260840161051c565b6105e2600180546001019055565b60006105ed60015490565b6040805161010080820183528382526001600160a01b0388811660208085018281528587018b81523360608801818152600060808a0181815260a08b018f815260c08c0183815260e08d018481528f85526005998a9052938e90209c518d55965160018d0180546001600160a01b0319908116928d16929092179055955160028d0155925160038c0180548716918b16919091179055516004808c01805490961691909916179093555193880193909355905160069096018054915161ffff1990921696151561ff001916969096179015159094029390931790935592516323b872dd60e01b815292830152306024830152604482018690529192506323b872dd90606401600060405180830381600087803b15801561070c57600080fd5b505af1158015610720573d6000803e3d6000fd5b50506040805133815260006020820181905281830187905260608201819052608082015290518693506001600160a01b038816925084917fc99151f4453170a67bc7441775fde1a3bc3220c06645df1121e703aab5e7da5d919081900360a00190a4505060016000555050565b600260005414156107e05760405162461bcd60e51b815260206004820152601f60248201527f5265656e7472616e637947756172643a207265656e7472616e742063616c6c00604482015260640161051c565b6002600081815582815260056020819052604090912090810154910154348214610874576040805162461bcd60e51b81526020600482015260248101919091527f506c65617365207375626d6974207468652061736b696e67207072696365206960448201527f6e206f7264657220746f20636f6d706c65746520746865207075726368617365606482015260840161051c565b6000838152600560205260408082206003015490516001600160a01b03909116913480156108fc02929091818181858888f193505050501580156108bc573d6000803e3d6000fd5b506040516323b872dd60e01b8152306004820152336024820152604481018290526001600160a01b038516906323b872dd90606401600060405180830381600087803b15801561090b57600080fd5b505af115801561091f573d6000803e3d6000fd5b50505060008481526005602052604090206004810180546001600160a01b03191633179055600601805460ff1916600117905550610961600280546001019055565b6003546004546040516001600160a01b039092169181156108fc0291906000818181858888f1935050505015801561099d573d6000803e3d6000fd5b50506001600055505050565b606060006109b660015490565b905060008060005b83811015610a195733600560006109d6846001610d10565b81526020810191909152604001600020600301546001600160a01b03161415610a0757610a04600184610d10565b92505b80610a1181610d3f565b9150506109be565b5060008267ffffffffffffffff811115610a4357634e487b7160e01b600052604160045260246000fd5b604051908082528060200260200182016040528015610a7c57816020015b610a69610bb4565b815260200190600190039081610a615790505b50905060005b848110156102b9573360056000610a9a846001610d10565b81526020810191909152604001600020600301546001600160a01b03161415610ba2576000600581610acd846001610d10565b81526020808201929092526040908101600090812054808252600580855291839020835161010080820186528254825260018301546001600160a01b0390811697830197909752600283015495820195909552600382015486166060820152600482015490951660808601529182015460a0850152600682015460ff808216151560c0870152939004909216151560e084015285519193509190859087908110610b8757634e487b7160e01b600052603260045260246000fd5b6020908102919091010152610b9d600186610d10565b945050505b80610bac81610d3f565b915050610a82565b6040805161010081018252600080825260208201819052918101829052606081018290526080810182905260a0810182905260c0810182905260e081019190915290565b80356001600160a01b0381168114610c0f57600080fd5b919050565b60008060408385031215610c26578182fd5b610c2f83610bf8565b946020939093013593505050565b600080600060608486031215610c51578081fd5b610c5a84610bf8565b95602085013595506040909401359392505050565b602080825282518282018190526000919060409081850190868401855b82811015610d0357815180518552868101516001600160a01b039081168887015286820151878701526060808301518216908701526080808301519091169086015260a0808201519086015260c08082015115159086015260e0908101511515908501526101009093019290850190600101610c8c565b5091979650505050505050565b60008219821115610d2357610d23610d5a565b500190565b600082821015610d3a57610d3a610d5a565b500390565b6000600019821415610d5357610d53610d5a565b5060010190565b634e487b7160e01b600052601160045260246000fdfea26469706673582212200e2894bbf2bf90e1053b97f71b171408613ea76744bff3d0da69befcf14699a364736f6c63430008040033",
  "linkReferences": {},
  "deployedLinkReferences": {}
}